{
  "_format": "hh-sol-artifact-1",
  "contractName": "GAuction",
  "sourceName": "contracts/GAuction.sol",
  "abi": [
    {
      "anonymous": false,
      "inputs": [
        {
          "indexed": true,
          "internalType": "address",
          "name": "previousOwner",
          "type": "address"
        },
        {
          "indexed": true,
          "internalType": "address",
          "name": "newOwner",
          "type": "address"
        }
      ],
      "name": "OwnershipTransferred",
      "type": "event"
    },
    {
      "inputs": [
        {
          "internalType": "uint256",
          "name": "auctionID_",
          "type": "uint256"
        }
      ],
      "name": "bidAuction",
      "outputs": [],
      "stateMutability": "payable",
      "type": "function"
    },
    {
      "inputs": [
        {
          "internalType": "uint256",
          "name": "auctionID_",
          "type": "uint256"
        }
      ],
      "name": "cancelAuction",
      "outputs": [],
      "stateMutability": "nonpayable",
      "type": "function"
    },
    {
      "inputs": [
        {
          "internalType": "uint256",
          "name": "auctionID_",
          "type": "uint256"
        }
      ],
      "name": "claimAuction",
      "outputs": [],
      "stateMutability": "nonpayable",
      "type": "function"
    },
    {
      "inputs": [
        {
          "internalType": "uint256",
          "name": "auctionID_",
          "type": "uint256"
        }
      ],
      "name": "completeAuction",
      "outputs": [],
      "stateMutability": "nonpayable",
      "type": "function"
    },
    {
      "inputs": [],
      "name": "owner",
      "outputs": [
        {
          "internalType": "address",
          "name": "",
          "type": "address"
        }
      ],
      "stateMutability": "view",
      "type": "function"
    },
    {
      "inputs": [],
      "name": "renounceOwnership",
      "outputs": [],
      "stateMutability": "nonpayable",
      "type": "function"
    },
    {
      "inputs": [
        {
          "internalType": "address",
          "name": "tokenAddress_",
          "type": "address"
        },
        {
          "internalType": "uint256",
          "name": "tokenID_",
          "type": "uint256"
        },
        {
          "internalType": "uint256",
          "name": "floorPrice_",
          "type": "uint256"
        },
        {
          "internalType": "uint256",
          "name": "blockNo_",
          "type": "uint256"
        }
      ],
      "name": "startAuction",
      "outputs": [],
      "stateMutability": "nonpayable",
      "type": "function"
    },
    {
      "inputs": [
        {
          "internalType": "address",
          "name": "newOwner",
          "type": "address"
        }
      ],
      "name": "transferOwnership",
      "outputs": [],
      "stateMutability": "nonpayable",
      "type": "function"
    }
  ],
  "bytecode": "0x60e06040526000608052600160f81b60a052600160f91b60c05234801561002557600080fd5b50600160005561003433610039565b61008b565b600180546001600160a01b038381166001600160a01b0319831681179093556040519116919082907f8be0079c531659141344cd1fd0a4f28419497f9722a3daafe3b4186f6b6457e090600090a35050565b60805160f81c60a05160f81c60c05160f81c6113ea61010260003960008181610a020152610c45015260008181610295015281816104890152818161094d0152610b6d01526000818161024901528181610625015281816108aa01528181610ba001528181610c0a0152610efc01526113ea6000f3fe60806040526004361061007b5760003560e01c806396b5a7551161004e57806396b5a755146100f65780639aafc6c9146101165780639c16627314610136578063f2fde38b1461015657600080fd5b806321b628861461008057806364a7d7c7146100a2578063715018a6146100b55780638da5cb5b146100ca575b600080fd5b34801561008c57600080fd5b506100a061009b3660046112ae565b610176565b005b6100a06100b03660046112ae565b6104f7565b3480156100c157600080fd5b506100a0610741565b3480156100d657600080fd5b50600154604080516001600160a01b039092168252519081900360200190f35b34801561010257600080fd5b506100a06101113660046112ae565b6107a7565b34801561012257600080fd5b506100a06101313660046112ae565b610a42565b34801561014257600080fd5b506100a0610151366004611274565b610ce5565b34801561016257600080fd5b506100a0610171366004611235565b6110c1565b60025481106101a05760405162461bcd60e51b815260040161019790611314565b60405180910390fd5b6000600282815481106101c357634e487b7160e01b600052603260045260246000fd5b60009182526020918290206040805161010081018252600890930290910180546001600160a01b03908116845260018201548116948401949094526002810154909316908201526003820154606082015260048201546080820152600582015460a0820152600682015460c082015260079091015460ff90811660e083018190529192507f000000000000000000000000000000000000000000000000000000000000000016146102865760405162461bcd60e51b8152600401610197906112ea565b438160a00151116102d25760ff7f00000000000000000000000000000000000000000000000000000000000000001660e082015260405162461bcd60e51b81526101979060040161133e565b602081015160408201516001600160a01b0316156104155781608001518260c001511061036757604080830151606084015191516323b872dd60e01b81526001600160a01b038416926323b872dd92610330923092906004016112c6565b600060405180830381600087803b15801561034a57600080fd5b505af115801561035e573d6000803e3d6000fd5b5050505061047d565b815160608301516040516323b872dd60e01b81526001600160a01b038416926323b872dd9261039c92309291906004016112c6565b600060405180830381600087803b1580156103b657600080fd5b505af11580156103ca573d6000803e3d6000fd5b5050505081604001516001600160a01b03166108fc8360c001519081150290604051600060405180830381858888f1935050505015801561040f573d6000803e3d6000fd5b5061047d565b815160608301516040516323b872dd60e01b81526001600160a01b038416926323b872dd9261044a92309291906004016112c6565b600060405180830381600087803b15801561046457600080fd5b505af1158015610478573d6000803e3d6000fd5b505050505b610487600361118c565b7f0000000000000000000000000000000000000000000000000000000000000000600284815481106104c957634e487b7160e01b600052603260045260246000fd5b906000526020600020906008020160070160006101000a81548160ff021916908360ff160217905550505050565b6002600054141561051a5760405162461bcd60e51b815260040161019790611368565b600260008190555481106105405760405162461bcd60e51b815260040161019790611314565b60006002828154811061056357634e487b7160e01b600052603260045260246000fd5b60009182526020918290206040805161010081018252600890930290910180546001600160a01b039081168085526001830154821695850195909552600282015416918301919091526003810154606083015260048101546080830152600581015460a0830152600681015460c08301526007015460ff1660e082015291503314156106235760405162461bcd60e51b815260206004820152600f60248201526e39b2b73232b91034b99036b0b5b2b960891b6044820152606401610197565b7f000000000000000000000000000000000000000000000000000000000000000060ff168160e0015160ff161461066c5760405162461bcd60e51b8152600401610197906112ea565b438160a0015111156106905760405162461bcd60e51b81526004016101979061133e565b348160c00151106106d65760405162461bcd60e51b815260206004820152601060248201526f1ddc9bdb99c8189a5908185b5bdd5b9d60821b6044820152606401610197565b60408101516001600160a01b03161561072c5780604001516001600160a01b03166108fc8260c001519081150290604051600060405180830381858888f1935050505015801561072a573d6000803e3d6000fd5b505b3460c082015233604090910152506001600055565b6001546001600160a01b0316331461079b5760405162461bcd60e51b815260206004820181905260248201527f4f776e61626c653a2063616c6c6572206973206e6f7420746865206f776e65726044820152606401610197565b6107a560006111e3565b565b60025481106107c85760405162461bcd60e51b815260040161019790611314565b6000600282815481106107eb57634e487b7160e01b600052603260045260246000fd5b60009182526020918290206040805161010081018252600890930290910180546001600160a01b039081168085526001830154821695850195909552600282015416918301919091526003810154606083015260048101546080830152600581015460a0830152600681015460c08301526007015460ff1660e0820152915033146108a85760405162461bcd60e51b815260206004820152600d60248201526c3737903832b936b4b9b9b4b7b760991b6044820152606401610197565b7f000000000000000000000000000000000000000000000000000000000000000060ff168160e0015160ff16146108f15760405162461bcd60e51b8152600401610197906112ea565b60408101516001600160a01b03161561093d5760405162461bcd60e51b815260206004820152600e60248201526d18d85b881b9bdd0818d85b98d95b60921b6044820152606401610197565b438160a00151101561098a5760ff7f00000000000000000000000000000000000000000000000000000000000000001660e082015260405162461bcd60e51b81526101979060040161133e565b6020810151815160608301516040516323b872dd60e01b81526001600160a01b038416926323b872dd926109c492309291906004016112c6565b600060405180830381600087803b1580156109de57600080fd5b505af11580156109f2573d6000803e3d6000fd5b50505050610a00600361118c565b7f0000000000000000000000000000000000000000000000000000000000000000600284815481106104c957634e487b7160e01b600052603260045260246000fd5b60026000541415610a655760405162461bcd60e51b815260040161019790611368565b60026000819055548110610a8b5760405162461bcd60e51b815260040161019790611314565b600060028281548110610aae57634e487b7160e01b600052603260045260246000fd5b60009182526020918290206040805161010081018252600890930290910180546001600160a01b039081168085526001830154821695850195909552600282015416918301919091526003810154606083015260048101546080830152600581015460a0830152600681015460c08301526007015460ff1660e082015291503314610b6b5760405162461bcd60e51b815260206004820152600d60248201526c3737903832b936b4b9b9b4b7b760991b6044820152606401610197565b7f000000000000000000000000000000000000000000000000000000000000000060ff168160e0015160ff161480610bcc57507f000000000000000000000000000000000000000000000000000000000000000060ff168160e0015160ff16145b610c085760405162461bcd60e51b815260206004820152600d60248201526c63616e206e6f7420636c61696d60981b6044820152606401610197565b7f000000000000000000000000000000000000000000000000000000000000000060ff168160e0015160ff161415610c4357610c4382610176565b7f000000000000000000000000000000000000000000000000000000000000000060028381548110610c8557634e487b7160e01b600052603260045260246000fd5b60009182526020822060089190910201600701805460ff191660ff939093169290921790915560c082015160405133926108fc831502929190818181858888f19350505050158015610cdb573d6000803e3d6000fd5b5050600160005550565b60026000541415610d085760405162461bcd60e51b815260040161019790611368565b60026000556040516331a9108f60e11b815260048101849052849033906001600160a01b03831690636352211e9060240160206040518083038186803b158015610d5157600080fd5b505afa158015610d65573d6000803e3d6000fd5b505050506040513d601f19601f82011682018060405250810190610d899190611258565b6001600160a01b031614610dcb5760405162461bcd60e51b81526020600482015260096024820152683737ba1037bbb732b960b91b6044820152606401610197565b60008311610e0f5760405162461bcd60e51b815260206004820152601160248201527077726f6e6720666c6f6f7220707269636560781b6044820152606401610197565b43821015610e545760405162461bcd60e51b81526020600482015260126024820152713bb937b73390313637b1b590373ab6b132b960711b6044820152606401610197565b6040516323b872dd60e01b81526001600160a01b038216906323b872dd90610e84903390309089906004016112c6565b600060405180830381600087803b158015610e9e57600080fd5b505af1158015610eb2573d6000803e3d6000fd5b505060408051610100810182523381526001600160a01b03898116602083019081526000938301848152606084018b8152608085018b815260a086018b815260c0870188815260ff7f0000000000000000000000000000000000000000000000000000000000000000811660e08a01908152600280546001810182559b5298516008909a027f405787fa12a823e0f2b7631cc41b3ba8828b3321ca811111fa75cd3aa3bb5ace810180549b8a166001600160a01b03199c8d1617905596517f405787fa12a823e0f2b7631cc41b3ba8828b3321ca811111fa75cd3aa3bb5acf88018054918a16918c1691909117905594517f405787fa12a823e0f2b7631cc41b3ba8828b3321ca811111fa75cd3aa3bb5ad0870180549190981699169890981790955590517f405787fa12a823e0f2b7631cc41b3ba8828b3321ca811111fa75cd3aa3bb5ad1840155517f405787fa12a823e0f2b7631cc41b3ba8828b3321ca811111fa75cd3aa3bb5ad283015591517f405787fa12a823e0f2b7631cc41b3ba8828b3321ca811111fa75cd3aa3bb5ad382015592517f405787fa12a823e0f2b7631cc41b3ba8828b3321ca811111fa75cd3aa3bb5ad484015590517f405787fa12a823e0f2b7631cc41b3ba8828b3321ca811111fa75cd3aa3bb5ad590920180549290911660ff19909216919091179055506110b59050600380546001019055565b50506001600055505050565b6001546001600160a01b0316331461111b5760405162461bcd60e51b815260206004820181905260248201527f4f776e61626c653a2063616c6c6572206973206e6f7420746865206f776e65726044820152606401610197565b6001600160a01b0381166111805760405162461bcd60e51b815260206004820152602660248201527f4f776e61626c653a206e6577206f776e657220697320746865207a65726f206160448201526564647265737360d01b6064820152608401610197565b611189816111e3565b50565b8054806111db5760405162461bcd60e51b815260206004820152601b60248201527f436f756e7465723a2064656372656d656e74206f766572666c6f7700000000006044820152606401610197565b600019019055565b600180546001600160a01b038381166001600160a01b0319831681179093556040519116919082907f8be0079c531659141344cd1fd0a4f28419497f9722a3daafe3b4186f6b6457e090600090a35050565b600060208284031215611246578081fd5b81356112518161139f565b9392505050565b600060208284031215611269578081fd5b81516112518161139f565b60008060008060808587031215611289578283fd5b84356112948161139f565b966020860135965060408601359560600135945092505050565b6000602082840312156112bf578081fd5b5035919050565b6001600160a01b039384168152919092166020820152604081019190915260600190565b60208082526010908201526f185b1c9958591e48199a5b9a5cda195960821b604082015260600190565b60208082526010908201526f1ddc9bdb99c8185d58dd1a5bdb88125160821b604082015260600190565b60208082526010908201526f3334b734b9b432b21030bab1ba34b7b760811b604082015260600190565b6020808252601f908201527f5265656e7472616e637947756172643a207265656e7472616e742063616c6c00604082015260600190565b6001600160a01b038116811461118957600080fdfea2646970667358221220506e8fa818380039080e6199e2ddbe9b523eb40894981dba2fbbfb43ea1f15f064736f6c63430008040033",
  "linkReferences": {},
  "deployedLinkReferences": {}
}