{
  "_format": "hh-sol-artifact-1",
  "contractName": "GNFT",
  "sourceName": "contracts/GNFT.sol",
  "abi": [
    {
      "inputs": [
        {
          "internalType": "uint256",
          "name": "mintPrice_",
          "type": "uint256"
        }
      ],
      "stateMutability": "nonpayable",
      "type": "constructor"
    },
    {
      "anonymous": false,
      "inputs": [
        {
          "indexed": true,
          "internalType": "address",
          "name": "owner",
          "type": "address"
        },
        {
          "indexed": true,
          "internalType": "address",
          "name": "approved",
          "type": "address"
        },
        {
          "indexed": true,
          "internalType": "uint256",
          "name": "tokenId",
          "type": "uint256"
        }
      ],
      "name": "Approval",
      "type": "event"
    },
    {
      "anonymous": false,
      "inputs": [
        {
          "indexed": true,
          "internalType": "address",
          "name": "owner",
          "type": "address"
        },
        {
          "indexed": true,
          "internalType": "address",
          "name": "operator",
          "type": "address"
        },
        {
          "indexed": false,
          "internalType": "bool",
          "name": "approved",
          "type": "bool"
        }
      ],
      "name": "ApprovalForAll",
      "type": "event"
    },
    {
      "anonymous": false,
      "inputs": [
        {
          "indexed": true,
          "internalType": "address",
          "name": "previousOwner",
          "type": "address"
        },
        {
          "indexed": true,
          "internalType": "address",
          "name": "newOwner",
          "type": "address"
        }
      ],
      "name": "OwnershipTransferred",
      "type": "event"
    },
    {
      "anonymous": false,
      "inputs": [
        {
          "indexed": true,
          "internalType": "address",
          "name": "from",
          "type": "address"
        },
        {
          "indexed": true,
          "internalType": "address",
          "name": "to",
          "type": "address"
        },
        {
          "indexed": true,
          "internalType": "uint256",
          "name": "tokenId",
          "type": "uint256"
        }
      ],
      "name": "Transfer",
      "type": "event"
    },
    {
      "inputs": [
        {
          "internalType": "address",
          "name": "to",
          "type": "address"
        },
        {
          "internalType": "uint256",
          "name": "tokenId",
          "type": "uint256"
        }
      ],
      "name": "approve",
      "outputs": [],
      "stateMutability": "nonpayable",
      "type": "function"
    },
    {
      "inputs": [
        {
          "internalType": "address",
          "name": "owner",
          "type": "address"
        }
      ],
      "name": "balanceOf",
      "outputs": [
        {
          "internalType": "uint256",
          "name": "",
          "type": "uint256"
        }
      ],
      "stateMutability": "view",
      "type": "function"
    },
    {
      "inputs": [
        {
          "internalType": "uint256",
          "name": "tokenId",
          "type": "uint256"
        }
      ],
      "name": "getApproved",
      "outputs": [
        {
          "internalType": "address",
          "name": "",
          "type": "address"
        }
      ],
      "stateMutability": "view",
      "type": "function"
    },
    {
      "inputs": [
        {
          "internalType": "address",
          "name": "owner",
          "type": "address"
        },
        {
          "internalType": "address",
          "name": "operator",
          "type": "address"
        }
      ],
      "name": "isApprovedForAll",
      "outputs": [
        {
          "internalType": "bool",
          "name": "",
          "type": "bool"
        }
      ],
      "stateMutability": "view",
      "type": "function"
    },
    {
      "inputs": [
        {
          "internalType": "string",
          "name": "tokenURI_",
          "type": "string"
        }
      ],
      "name": "mintNFT",
      "outputs": [],
      "stateMutability": "payable",
      "type": "function"
    },
    {
      "inputs": [],
      "name": "name",
      "outputs": [
        {
          "internalType": "string",
          "name": "",
          "type": "string"
        }
      ],
      "stateMutability": "view",
      "type": "function"
    },
    {
      "inputs": [],
      "name": "owner",
      "outputs": [
        {
          "internalType": "address",
          "name": "",
          "type": "address"
        }
      ],
      "stateMutability": "view",
      "type": "function"
    },
    {
      "inputs": [
        {
          "internalType": "uint256",
          "name": "tokenId",
          "type": "uint256"
        }
      ],
      "name": "ownerOf",
      "outputs": [
        {
          "internalType": "address",
          "name": "",
          "type": "address"
        }
      ],
      "stateMutability": "view",
      "type": "function"
    },
    {
      "inputs": [],
      "name": "renounceOwnership",
      "outputs": [],
      "stateMutability": "nonpayable",
      "type": "function"
    },
    {
      "inputs": [
        {
          "internalType": "address",
          "name": "from",
          "type": "address"
        },
        {
          "internalType": "address",
          "name": "to",
          "type": "address"
        },
        {
          "internalType": "uint256",
          "name": "tokenId",
          "type": "uint256"
        }
      ],
      "name": "safeTransferFrom",
      "outputs": [],
      "stateMutability": "nonpayable",
      "type": "function"
    },
    {
      "inputs": [
        {
          "internalType": "address",
          "name": "from",
          "type": "address"
        },
        {
          "internalType": "address",
          "name": "to",
          "type": "address"
        },
        {
          "internalType": "uint256",
          "name": "tokenId",
          "type": "uint256"
        },
        {
          "internalType": "bytes",
          "name": "_data",
          "type": "bytes"
        }
      ],
      "name": "safeTransferFrom",
      "outputs": [],
      "stateMutability": "nonpayable",
      "type": "function"
    },
    {
      "inputs": [
        {
          "internalType": "address",
          "name": "operator",
          "type": "address"
        },
        {
          "internalType": "bool",
          "name": "approved",
          "type": "bool"
        }
      ],
      "name": "setApprovalForAll",
      "outputs": [],
      "stateMutability": "nonpayable",
      "type": "function"
    },
    {
      "inputs": [
        {
          "internalType": "address",
          "name": "newAddr_",
          "type": "address"
        }
      ],
      "name": "setFundAddress",
      "outputs": [],
      "stateMutability": "nonpayable",
      "type": "function"
    },
    {
      "inputs": [
        {
          "internalType": "bytes4",
          "name": "interfaceId",
          "type": "bytes4"
        }
      ],
      "name": "supportsInterface",
      "outputs": [
        {
          "internalType": "bool",
          "name": "",
          "type": "bool"
        }
      ],
      "stateMutability": "view",
      "type": "function"
    },
    {
      "inputs": [],
      "name": "symbol",
      "outputs": [
        {
          "internalType": "string",
          "name": "",
          "type": "string"
        }
      ],
      "stateMutability": "view",
      "type": "function"
    },
    {
      "inputs": [
        {
          "internalType": "uint256",
          "name": "tokenID_",
          "type": "uint256"
        }
      ],
      "name": "tokenURI",
      "outputs": [
        {
          "internalType": "string",
          "name": "",
          "type": "string"
        }
      ],
      "stateMutability": "view",
      "type": "function"
    },
    {
      "inputs": [
        {
          "internalType": "address",
          "name": "from",
          "type": "address"
        },
        {
          "internalType": "address",
          "name": "to",
          "type": "address"
        },
        {
          "internalType": "uint256",
          "name": "tokenId",
          "type": "uint256"
        }
      ],
      "name": "transferFrom",
      "outputs": [],
      "stateMutability": "nonpayable",
      "type": "function"
    },
    {
      "inputs": [
        {
          "internalType": "address",
          "name": "newOwner",
          "type": "address"
        }
      ],
      "name": "transferOwnership",
      "outputs": [],
      "stateMutability": "nonpayable",
      "type": "function"
    },
    {
      "inputs": [],
      "name": "withDraw",
      "outputs": [],
      "stateMutability": "nonpayable",
      "type": "function"
    },
    {
      "stateMutability": "payable",
      "type": "receive"
    }
  ],
  "bytecode": "0x60806040523480156200001157600080fd5b506040516200193e3803806200193e8339810160408190526200003491620001d0565b604080518082018252600981526811d95b1bdb4813919560ba1b60208083019182528351808501909452600484526311d3919560e21b90840152815191929162000081916000916200012a565b508051620000979060019060208401906200012a565b505050620000b4620000ae620000d460201b60201c565b620000d8565b6001600755600b55600980546001600160a01b0319163317905562000226565b3390565b600680546001600160a01b038381166001600160a01b0319831681179093556040519116919082907f8be0079c531659141344cd1fd0a4f28419497f9722a3daafe3b4186f6b6457e090600090a35050565b8280546200013890620001e9565b90600052602060002090601f0160209004810192826200015c5760008555620001a7565b82601f106200017757805160ff1916838001178555620001a7565b82800160010185558215620001a7579182015b82811115620001a75782518255916020019190600101906200018a565b50620001b5929150620001b9565b5090565b5b80821115620001b55760008155600101620001ba565b600060208284031215620001e2578081fd5b5051919050565b600181811c90821680620001fe57607f821691505b602082108114156200022057634e487b7160e01b600052602260045260246000fd5b50919050565b61170880620002366000396000f3fe6080604052600436106101185760003560e01c8063715018a6116100a0578063b88d4fde11610064578063b88d4fde14610300578063c87b56dd14610320578063e985e9c514610340578063f2fde38b14610389578063fb37e883146103a957600080fd5b8063715018a61461027857806385dc30041461028d5780638da5cb5b146102ad57806395d89b41146102cb578063a22cb465146102e057600080fd5b80630fdb1c10116100e75780630fdb1c10146101d557806323b872dd146101ea57806342842e0e1461020a5780636352211e1461022a57806370a082311461024a57600080fd5b806301ffc9a71461012457806306fdde0314610159578063081812fc1461017b578063095ea7b3146101b357600080fd5b3661011f57005b600080fd5b34801561013057600080fd5b5061014461013f3660046113f6565b6103bc565b60405190151581526020015b60405180910390f35b34801561016557600080fd5b5061016e61040e565b604051610150919061153b565b34801561018757600080fd5b5061019b61019636600461149b565b6104a0565b6040516001600160a01b039091168152602001610150565b3480156101bf57600080fd5b506101d36101ce3660046113cd565b61053a565b005b3480156101e157600080fd5b506101d3610650565b3480156101f657600080fd5b506101d3610205366004611283565b610696565b34801561021657600080fd5b506101d3610225366004611283565b6106c7565b34801561023657600080fd5b5061019b61024536600461149b565b6106e2565b34801561025657600080fd5b5061026a610265366004611230565b610759565b604051908152602001610150565b34801561028457600080fd5b506101d36107e0565b34801561029957600080fd5b506101d36102a8366004611230565b610816565b3480156102b957600080fd5b506006546001600160a01b031661019b565b3480156102d757600080fd5b5061016e610862565b3480156102ec57600080fd5b506101d36102fb366004611393565b610871565b34801561030c57600080fd5b506101d361031b3660046112be565b61087c565b34801561032c57600080fd5b5061016e61033b36600461149b565b6108b4565b34801561034c57600080fd5b5061014461035b366004611251565b6001600160a01b03918216600090815260056020908152604080832093909416825291909152205460ff1690565b34801561039557600080fd5b506101d36103a4366004611230565b610956565b6101d36103b736600461142e565b6109ee565b60006001600160e01b031982166380ac58cd60e01b14806103ed57506001600160e01b03198216635b5e139f60e01b145b8061040857506301ffc9a760e01b6001600160e01b03198316145b92915050565b60606000805461041d90611655565b80601f016020809104026020016040519081016040528092919081815260200182805461044990611655565b80156104965780601f1061046b57610100808354040283529160200191610496565b820191906000526020600020905b81548152906001019060200180831161047957829003601f168201915b5050505050905090565b6000818152600260205260408120546001600160a01b031661051e5760405162461bcd60e51b815260206004820152602c60248201527f4552433732313a20617070726f76656420717565727920666f72206e6f6e657860448201526b34b9ba32b73a103a37b5b2b760a11b60648201526084015b60405180910390fd5b506000908152600460205260409020546001600160a01b031690565b6000610545826106e2565b9050806001600160a01b0316836001600160a01b031614156105b35760405162461bcd60e51b815260206004820152602160248201527f4552433732313a20617070726f76616c20746f2063757272656e74206f776e656044820152603960f91b6064820152608401610515565b336001600160a01b03821614806105cf57506105cf813361035b565b6106415760405162461bcd60e51b815260206004820152603860248201527f4552433732313a20617070726f76652063616c6c6572206973206e6f74206f7760448201527f6e6572206e6f7220617070726f76656420666f7220616c6c00000000000000006064820152608401610515565b61064b8383610ad6565b505050565b478015610693576009546040516001600160a01b039091169082156108fc029083906000818181858888f19350505050158015610691573d6000803e3d6000fd5b505b50565b6106a03382610b44565b6106bc5760405162461bcd60e51b8152600401610515906115d5565b61064b838383610c3b565b61064b8383836040518060200160405280600081525061087c565b6000818152600260205260408120546001600160a01b0316806104085760405162461bcd60e51b815260206004820152602960248201527f4552433732313a206f776e657220717565727920666f72206e6f6e657869737460448201526832b73a103a37b5b2b760b91b6064820152608401610515565b60006001600160a01b0382166107c45760405162461bcd60e51b815260206004820152602a60248201527f4552433732313a2062616c616e636520717565727920666f7220746865207a65604482015269726f206164647265737360b01b6064820152608401610515565b506001600160a01b031660009081526003602052604090205490565b6006546001600160a01b0316331461080a5760405162461bcd60e51b8152600401610515906115a0565b6108146000610dd7565b565b6006546001600160a01b031633146108405760405162461bcd60e51b8152600401610515906115a0565b600980546001600160a01b0319166001600160a01b0392909216919091179055565b60606001805461041d90611655565b610691338383610e29565b6108863383610b44565b6108a25760405162461bcd60e51b8152600401610515906115d5565b6108ae84848484610ef8565b50505050565b60008181526008602052604090208054606091906108d190611655565b80601f01602080910402602001604051908101604052809291908181526020018280546108fd90611655565b801561094a5780601f1061091f5761010080835404028352916020019161094a565b820191906000526020600020905b81548152906001019060200180831161092d57829003601f168201915b50505050509050919050565b6006546001600160a01b031633146109805760405162461bcd60e51b8152600401610515906115a0565b6001600160a01b0381166109e55760405162461bcd60e51b815260206004820152602660248201527f4f776e61626c653a206e6577206f776e657220697320746865207a65726f206160448201526564647265737360d01b6064820152608401610515565b61069381610dd7565b60026007541415610a415760405162461bcd60e51b815260206004820152601f60248201527f5265656e7472616e637947756172643a207265656e7472616e742063616c6c006044820152606401610515565b6002600755600b54341015610a8d5760405162461bcd60e51b8152602060048201526012602482015271496e73756666696369656e742076616c756560701b6044820152606401610515565b6000610a98600a5490565b9050610aa43382610f2b565b610ab2600a80546001019055565b6000818152600860205260409020610acb90848461117b565b505060016007555050565b600081815260046020526040902080546001600160a01b0319166001600160a01b0384169081179091558190610b0b826106e2565b6001600160a01b03167f8c5be1e5ebec7d5bd14f71427d1e84f3dd0314c0f7b2291e5b200ac8c7c3b92560405160405180910390a45050565b6000818152600260205260408120546001600160a01b0316610bbd5760405162461bcd60e51b815260206004820152602c60248201527f4552433732313a206f70657261746f7220717565727920666f72206e6f6e657860448201526b34b9ba32b73a103a37b5b2b760a11b6064820152608401610515565b6000610bc8836106e2565b9050806001600160a01b0316846001600160a01b03161480610c0f57506001600160a01b0380821660009081526005602090815260408083209388168352929052205460ff165b80610c335750836001600160a01b0316610c28846104a0565b6001600160a01b0316145b949350505050565b826001600160a01b0316610c4e826106e2565b6001600160a01b031614610cb25760405162461bcd60e51b815260206004820152602560248201527f4552433732313a207472616e736665722066726f6d20696e636f72726563742060448201526437bbb732b960d91b6064820152608401610515565b6001600160a01b038216610d145760405162461bcd60e51b8152602060048201526024808201527f4552433732313a207472616e7366657220746f20746865207a65726f206164646044820152637265737360e01b6064820152608401610515565b610d1f600082610ad6565b6001600160a01b0383166000908152600360205260408120805460019290610d4890849061163e565b90915550506001600160a01b0382166000908152600360205260408120805460019290610d76908490611626565b909155505060008181526002602052604080822080546001600160a01b0319166001600160a01b0386811691821790925591518493918716917fddf252ad1be2c89b69c2b068fc378daa952ba7f163c4a11628f55a4df523b3ef91a4505050565b600680546001600160a01b038381166001600160a01b0319831681179093556040519116919082907f8be0079c531659141344cd1fd0a4f28419497f9722a3daafe3b4186f6b6457e090600090a35050565b816001600160a01b0316836001600160a01b03161415610e8b5760405162461bcd60e51b815260206004820152601960248201527f4552433732313a20617070726f766520746f2063616c6c6572000000000000006044820152606401610515565b6001600160a01b03838116600081815260056020908152604080832094871680845294825291829020805460ff191686151590811790915591519182527f17307eab39ab6107e8899845ad3d59bd9653f200f220920489ca2b5937696c31910160405180910390a3505050565b610f03848484610c3b565b610f0f8484848461106e565b6108ae5760405162461bcd60e51b81526004016105159061154e565b6001600160a01b038216610f815760405162461bcd60e51b815260206004820181905260248201527f4552433732313a206d696e7420746f20746865207a65726f20616464726573736044820152606401610515565b6000818152600260205260409020546001600160a01b031615610fe65760405162461bcd60e51b815260206004820152601c60248201527f4552433732313a20746f6b656e20616c7265616479206d696e746564000000006044820152606401610515565b6001600160a01b038216600090815260036020526040812080546001929061100f908490611626565b909155505060008181526002602052604080822080546001600160a01b0319166001600160a01b03861690811790915590518392907fddf252ad1be2c89b69c2b068fc378daa952ba7f163c4a11628f55a4df523b3ef908290a4610691565b60006001600160a01b0384163b1561117057604051630a85bd0160e11b81526001600160a01b0385169063150b7a02906110b29033908990889088906004016114fe565b602060405180830381600087803b1580156110cc57600080fd5b505af19250505080156110fc575060408051601f3d908101601f191682019092526110f991810190611412565b60015b611156573d80801561112a576040519150601f19603f3d011682016040523d82523d6000602084013e61112f565b606091505b50805161114e5760405162461bcd60e51b81526004016105159061154e565b805181602001fd5b6001600160e01b031916630a85bd0160e11b149050610c33565b506001949350505050565b82805461118790611655565b90600052602060002090601f0160209004810192826111a957600085556111ef565b82601f106111c25782800160ff198235161785556111ef565b828001600101855582156111ef579182015b828111156111ef5782358255916020019190600101906111d4565b506111fb9291506111ff565b5090565b5b808211156111fb5760008155600101611200565b80356001600160a01b038116811461122b57600080fd5b919050565b600060208284031215611241578081fd5b61124a82611214565b9392505050565b60008060408385031215611263578081fd5b61126c83611214565b915061127a60208401611214565b90509250929050565b600080600060608486031215611297578081fd5b6112a084611214565b92506112ae60208501611214565b9150604084013590509250925092565b600080600080608085870312156112d3578081fd5b6112dc85611214565b93506112ea60208601611214565b925060408501359150606085013567ffffffffffffffff8082111561130d578283fd5b818701915087601f830112611320578283fd5b813581811115611332576113326116a6565b604051601f8201601f19908116603f0116810190838211818310171561135a5761135a6116a6565b816040528281528a6020848701011115611372578586fd5b82602086016020830137918201602001949094529598949750929550505050565b600080604083850312156113a5578182fd5b6113ae83611214565b9150602083013580151581146113c2578182fd5b809150509250929050565b600080604083850312156113df578182fd5b6113e883611214565b946020939093013593505050565b600060208284031215611407578081fd5b813561124a816116bc565b600060208284031215611423578081fd5b815161124a816116bc565b60008060208385031215611440578182fd5b823567ffffffffffffffff80821115611457578384fd5b818501915085601f83011261146a578384fd5b813581811115611478578485fd5b866020828501011115611489578485fd5b60209290920196919550909350505050565b6000602082840312156114ac578081fd5b5035919050565b60008151808452815b818110156114d8576020818501810151868301820152016114bc565b818111156114e95782602083870101525b50601f01601f19169290920160200192915050565b6001600160a01b0385811682528416602082015260408101839052608060608201819052600090611531908301846114b3565b9695505050505050565b60208152600061124a60208301846114b3565b60208082526032908201527f4552433732313a207472616e7366657220746f206e6f6e20455243373231526560408201527131b2b4bb32b91034b6b83632b6b2b73a32b960711b606082015260800190565b6020808252818101527f4f776e61626c653a2063616c6c6572206973206e6f7420746865206f776e6572604082015260600190565b60208082526031908201527f4552433732313a207472616e736665722063616c6c6572206973206e6f74206f6040820152701ddb995c881b9bdc88185c1c1c9bdd9959607a1b606082015260800190565b6000821982111561163957611639611690565b500190565b60008282101561165057611650611690565b500390565b600181811c9082168061166957607f821691505b6020821081141561168a57634e487b7160e01b600052602260045260246000fd5b50919050565b634e487b7160e01b600052601160045260246000fd5b634e487b7160e01b600052604160045260246000fd5b6001600160e01b03198116811461069357600080fdfea2646970667358221220bb0cd800842c5e27accad39a36606969d1fa71b54ce0853d2c3ee5b1867f1f3c64736f6c63430008040033",
  "linkReferences": {},
  "deployedLinkReferences": {}
}